{
  "_format": "hh-sol-artifact-1",
  "contractName": "BoxV2",
  "sourceName": "contracts/BoxV2.sol",
  "abi": [
    {
      "inputs": [
        {
          "internalType": "address",
          "name": "target",
          "type": "address"
        }
      ],
      "name": "AddressEmptyCode",
      "type": "error"
    },
    {
      "inputs": [
        {
          "internalType": "address",
          "name": "implementation",
          "type": "address"
        }
      ],
      "name": "ERC1967InvalidImplementation",
      "type": "error"
    },
    {
      "inputs": [],
      "name": "ERC1967NonPayable",
      "type": "error"
    },
    {
      "inputs": [],
      "name": "FailedCall",
      "type": "error"
    },
    {
      "inputs": [],
      "name": "InvalidInitialization",
      "type": "error"
    },
    {
      "inputs": [],
      "name": "NotInitializing",
      "type": "error"
    },
    {
      "inputs": [
        {
          "internalType": "address",
          "name": "owner",
          "type": "address"
        }
      ],
      "name": "OwnableInvalidOwner",
      "type": "error"
    },
    {
      "inputs": [
        {
          "internalType": "address",
          "name": "account",
          "type": "address"
        }
      ],
      "name": "OwnableUnauthorizedAccount",
      "type": "error"
    },
    {
      "inputs": [],
      "name": "UUPSUnauthorizedCallContext",
      "type": "error"
    },
    {
      "inputs": [
        {
          "internalType": "bytes32",
          "name": "slot",
          "type": "bytes32"
        }
      ],
      "name": "UUPSUnsupportedProxiableUUID",
      "type": "error"
    },
    {
      "anonymous": false,
      "inputs": [
        {
          "indexed": false,
          "internalType": "uint64",
          "name": "version",
          "type": "uint64"
        }
      ],
      "name": "Initialized",
      "type": "event"
    },
    {
      "anonymous": false,
      "inputs": [
        {
          "indexed": true,
          "internalType": "address",
          "name": "previousOwner",
          "type": "address"
        },
        {
          "indexed": true,
          "internalType": "address",
          "name": "newOwner",
          "type": "address"
        }
      ],
      "name": "OwnershipTransferred",
      "type": "event"
    },
    {
      "anonymous": false,
      "inputs": [
        {
          "indexed": true,
          "internalType": "address",
          "name": "implementation",
          "type": "address"
        }
      ],
      "name": "Upgraded",
      "type": "event"
    },
    {
      "inputs": [],
      "name": "UPGRADE_INTERFACE_VERSION",
      "outputs": [
        {
          "internalType": "string",
          "name": "",
          "type": "string"
        }
      ],
      "stateMutability": "view",
      "type": "function"
    },
    {
      "inputs": [],
      "name": "getValue",
      "outputs": [
        {
          "internalType": "uint256",
          "name": "",
          "type": "uint256"
        }
      ],
      "stateMutability": "view",
      "type": "function"
    },
    {
      "inputs": [],
      "name": "increase",
      "outputs": [],
      "stateMutability": "nonpayable",
      "type": "function"
    },
    {
      "inputs": [],
      "name": "initialize",
      "outputs": [],
      "stateMutability": "nonpayable",
      "type": "function"
    },
    {
      "inputs": [],
      "name": "owner",
      "outputs": [
        {
          "internalType": "address",
          "name": "",
          "type": "address"
        }
      ],
      "stateMutability": "view",
      "type": "function"
    },
    {
      "inputs": [],
      "name": "proxiableUUID",
      "outputs": [
        {
          "internalType": "bytes32",
          "name": "",
          "type": "bytes32"
        }
      ],
      "stateMutability": "view",
      "type": "function"
    },
    {
      "inputs": [],
      "name": "renounceOwnership",
      "outputs": [],
      "stateMutability": "nonpayable",
      "type": "function"
    },
    {
      "inputs": [
        {
          "internalType": "uint256",
          "name": "_value",
          "type": "uint256"
        }
      ],
      "name": "setValue",
      "outputs": [],
      "stateMutability": "nonpayable",
      "type": "function"
    },
    {
      "inputs": [
        {
          "internalType": "address",
          "name": "newOwner",
          "type": "address"
        }
      ],
      "name": "transferOwnership",
      "outputs": [],
      "stateMutability": "nonpayable",
      "type": "function"
    },
    {
      "inputs": [
        {
          "internalType": "address",
          "name": "newImplementation",
          "type": "address"
        },
        {
          "internalType": "bytes",
          "name": "data",
          "type": "bytes"
        }
      ],
      "name": "upgradeToAndCall",
      "outputs": [],
      "stateMutability": "payable",
      "type": "function"
    },
    {
      "inputs": [],
      "name": "value",
      "outputs": [
        {
          "internalType": "uint256",
          "name": "",
          "type": "uint256"
        }
      ],
      "stateMutability": "view",
      "type": "function"
    }
  ],
  "bytecode": "0x60a06040523073ffffffffffffffffffffffffffffffffffffffff1660809073ffffffffffffffffffffffffffffffffffffffff16815250348015604257600080fd5b5060805161139061006c60003960008181610564015281816105b9015261077401526113906000f3fe60806040526004361061009c5760003560e01c8063715018a611610064578063715018a6146101675780638129fc1c1461017e5780638da5cb5b14610195578063ad3cb1cc146101c0578063e8927fbc146101eb578063f2fde38b146102025761009c565b806320965255146100a15780633fa4f245146100cc5780634f1ef286146100f757806352d1902d14610113578063552410771461013e575b600080fd5b3480156100ad57600080fd5b506100b661022b565b6040516100c39190610e18565b60405180910390f35b3480156100d857600080fd5b506100e1610234565b6040516100ee9190610e18565b60405180910390f35b610111600480360381019061010c9190610feb565b61023a565b005b34801561011f57600080fd5b50610128610259565b6040516101359190611060565b60405180910390f35b34801561014a57600080fd5b50610165600480360381019061016091906110a7565b61028c565b005b34801561017357600080fd5b5061017c61029e565b005b34801561018a57600080fd5b506101936102b2565b005b3480156101a157600080fd5b506101aa610450565b6040516101b791906110e3565b60405180910390f35b3480156101cc57600080fd5b506101d5610488565b6040516101e2919061117d565b60405180910390f35b3480156101f757600080fd5b506102006104c1565b005b34801561020e57600080fd5b506102296004803603810190610224919061119f565b6104dc565b005b60008054905090565b60005481565b610242610562565b61024b82610648565b6102558282610653565b5050565b6000610263610772565b7f360894a13ba1a3210667c828492db98dca3e2076cc3735a920a3ca505d382bbc60001b905090565b6102946107f9565b8060008190555050565b6102a66107f9565b6102b06000610880565b565b60006102bc610957565b905060008160000160089054906101000a900460ff1615905060008260000160009054906101000a900467ffffffffffffffff1690506000808267ffffffffffffffff1614801561030a5750825b9050600060018367ffffffffffffffff1614801561033f575060003073ffffffffffffffffffffffffffffffffffffffff163b145b90508115801561034d575080155b15610384576040517ff92ee8a900000000000000000000000000000000000000000000000000000000815260040160405180910390fd5b60018560000160006101000a81548167ffffffffffffffff021916908367ffffffffffffffff16021790555083156103d45760018560000160086101000a81548160ff0219169083151502179055505b6103dd3361096b565b6103e561097f565b606460008190555083156104495760008560000160086101000a81548160ff0219169083151502179055507fc7f505b2f371ae2175ee4913f4499e1f2633a7b5936321eed1cdaeb6115181d260016040516104409190611225565b60405180910390a15b5050505050565b60008061045b610989565b90508060000160009054906101000a900473ffffffffffffffffffffffffffffffffffffffff1691505090565b6040518060400160405280600581526020017f352e302e3000000000000000000000000000000000000000000000000000000081525081565b60016000808282546104d3919061126f565b92505081905550565b6104e46107f9565b600073ffffffffffffffffffffffffffffffffffffffff168173ffffffffffffffffffffffffffffffffffffffff16036105565760006040517f1e4fbdf700000000000000000000000000000000000000000000000000000000815260040161054d91906110e3565b60405180910390fd5b61055f81610880565b50565b7f000000000000000000000000000000000000000000000000000000000000000073ffffffffffffffffffffffffffffffffffffffff163073ffffffffffffffffffffffffffffffffffffffff16148061060f57507f000000000000000000000000000000000000000000000000000000000000000073ffffffffffffffffffffffffffffffffffffffff166105f66109b1565b73ffffffffffffffffffffffffffffffffffffffff1614155b15610646576040517fe07c8dba00000000000000000000000000000000000000000000000000000000815260040160405180910390fd5b565b6106506107f9565b50565b8173ffffffffffffffffffffffffffffffffffffffff166352d1902d6040518163ffffffff1660e01b8152600401602060405180830381865afa9250505080156106bb57506040513d601f19601f820116820180604052508101906106b891906112cf565b60015b6106fc57816040517f4c9c8ce30000000000000000000000000000000000000000000000000000000081526004016106f391906110e3565b60405180910390fd5b7f360894a13ba1a3210667c828492db98dca3e2076cc3735a920a3ca505d382bbc60001b811461076357806040517faa1d49a400000000000000000000000000000000000000000000000000000000815260040161075a9190611060565b60405180910390fd5b61076d8383610a08565b505050565b7f000000000000000000000000000000000000000000000000000000000000000073ffffffffffffffffffffffffffffffffffffffff163073ffffffffffffffffffffffffffffffffffffffff16146107f7576040517fe07c8dba00000000000000000000000000000000000000000000000000000000815260040160405180910390fd5b565b610801610a7b565b73ffffffffffffffffffffffffffffffffffffffff1661081f610450565b73ffffffffffffffffffffffffffffffffffffffff161461087e57610842610a7b565b6040517f118cdaa700000000000000000000000000000000000000000000000000000000815260040161087591906110e3565b60405180910390fd5b565b600061088a610989565b905060008160000160009054906101000a900473ffffffffffffffffffffffffffffffffffffffff169050828260000160006101000a81548173ffffffffffffffffffffffffffffffffffffffff021916908373ffffffffffffffffffffffffffffffffffffffff1602179055508273ffffffffffffffffffffffffffffffffffffffff168173ffffffffffffffffffffffffffffffffffffffff167f8be0079c531659141344cd1fd0a4f28419497f9722a3daafe3b4186f6b6457e060405160405180910390a3505050565b600080610962610a83565b90508091505090565b610973610aae565b61097c81610aee565b50565b610987610aae565b565b60007f9016d09d72d40fdae2fd8ceac6b6234c7706214fd39c1cd1e609a0528c199300905090565b60006109df7f360894a13ba1a3210667c828492db98dca3e2076cc3735a920a3ca505d382bbc60001b610b74565b60000160009054906101000a900473ffffffffffffffffffffffffffffffffffffffff16905090565b610a1182610b7e565b8173ffffffffffffffffffffffffffffffffffffffff167fbc7cd75a20ee27fd9adebab32041f755214dbc6bffa90cc0225b39da2e5c2d3b60405160405180910390a2600081511115610a6e57610a688282610c4b565b50610a77565b610a76610ccf565b5b5050565b600033905090565b60007ff0c57e16840df040f15088dc2f81fe391c3923bec73e23a9662efc9c229c6a0060001b905090565b610ab6610d0c565b610aec576040517fd7e6bcf800000000000000000000000000000000000000000000000000000000815260040160405180910390fd5b565b610af6610aae565b600073ffffffffffffffffffffffffffffffffffffffff168173ffffffffffffffffffffffffffffffffffffffff1603610b685760006040517f1e4fbdf7000000000000000000000000000000000000000000000000000000008152600401610b5f91906110e3565b60405180910390fd5b610b7181610880565b50565b6000819050919050565b60008173ffffffffffffffffffffffffffffffffffffffff163b03610bda57806040517f4c9c8ce3000000000000000000000000000000000000000000000000000000008152600401610bd191906110e3565b60405180910390fd5b80610c077f360894a13ba1a3210667c828492db98dca3e2076cc3735a920a3ca505d382bbc60001b610b74565b60000160006101000a81548173ffffffffffffffffffffffffffffffffffffffff021916908373ffffffffffffffffffffffffffffffffffffffff16021790555050565b60606000808473ffffffffffffffffffffffffffffffffffffffff1684604051610c759190611343565b600060405180830381855af49150503d8060008114610cb0576040519150601f19603f3d011682016040523d82523d6000602084013e610cb5565b606091505b5091509150610cc5858383610d2c565b9250505092915050565b6000341115610d0a576040517fb398979f00000000000000000000000000000000000000000000000000000000815260040160405180910390fd5b565b6000610d16610957565b60000160089054906101000a900460ff16905090565b606082610d4157610d3c82610dbb565b610db3565b60008251148015610d69575060008473ffffffffffffffffffffffffffffffffffffffff163b145b15610dab57836040517f9996b315000000000000000000000000000000000000000000000000000000008152600401610da291906110e3565b60405180910390fd5b819050610db4565b5b9392505050565b600081511115610dcd57805160208201fd5b6040517fd6bda27500000000000000000000000000000000000000000000000000000000815260040160405180910390fd5b6000819050919050565b610e1281610dff565b82525050565b6000602082019050610e2d6000830184610e09565b92915050565b6000604051905090565b600080fd5b600080fd5b600073ffffffffffffffffffffffffffffffffffffffff82169050919050565b6000610e7282610e47565b9050919050565b610e8281610e67565b8114610e8d57600080fd5b50565b600081359050610e9f81610e79565b92915050565b600080fd5b600080fd5b6000601f19601f8301169050919050565b7f4e487b7100000000000000000000000000000000000000000000000000000000600052604160045260246000fd5b610ef882610eaf565b810181811067ffffffffffffffff82111715610f1757610f16610ec0565b5b80604052505050565b6000610f2a610e33565b9050610f368282610eef565b919050565b600067ffffffffffffffff821115610f5657610f55610ec0565b5b610f5f82610eaf565b9050602081019050919050565b82818337600083830152505050565b6000610f8e610f8984610f3b565b610f20565b905082815260208101848484011115610faa57610fa9610eaa565b5b610fb5848285610f6c565b509392505050565b600082601f830112610fd257610fd1610ea5565b5b8135610fe2848260208601610f7b565b91505092915050565b6000806040838503121561100257611001610e3d565b5b600061101085828601610e90565b925050602083013567ffffffffffffffff81111561103157611030610e42565b5b61103d85828601610fbd565b9150509250929050565b6000819050919050565b61105a81611047565b82525050565b60006020820190506110756000830184611051565b92915050565b61108481610dff565b811461108f57600080fd5b50565b6000813590506110a18161107b565b92915050565b6000602082840312156110bd576110bc610e3d565b5b60006110cb84828501611092565b91505092915050565b6110dd81610e67565b82525050565b60006020820190506110f860008301846110d4565b92915050565b600081519050919050565b600082825260208201905092915050565b60005b8381101561113857808201518184015260208101905061111d565b60008484015250505050565b600061114f826110fe565b6111598185611109565b935061116981856020860161111a565b61117281610eaf565b840191505092915050565b600060208201905081810360008301526111978184611144565b905092915050565b6000602082840312156111b5576111b4610e3d565b5b60006111c384828501610e90565b91505092915050565b6000819050919050565b600067ffffffffffffffff82169050919050565b6000819050919050565b600061120f61120a611205846111cc565b6111ea565b6111d6565b9050919050565b61121f816111f4565b82525050565b600060208201905061123a6000830184611216565b92915050565b7f4e487b7100000000000000000000000000000000000000000000000000000000600052601160045260246000fd5b600061127a82610dff565b915061128583610dff565b925082820190508082111561129d5761129c611240565b5b92915050565b6112ac81611047565b81146112b757600080fd5b50565b6000815190506112c9816112a3565b92915050565b6000602082840312156112e5576112e4610e3d565b5b60006112f3848285016112ba565b91505092915050565b600081519050919050565b600081905092915050565b600061131d826112fc565b6113278185611307565b935061133781856020860161111a565b80840191505092915050565b600061134f8284611312565b91508190509291505056fea2646970667358221220a639544d24ac1ec2264ebf9ac5583cac4eb24c59169f7d5bd3aab240e2b0165764736f6c634300081c0033",
  "linkReferences": {},
  "deployedLinkReferences": {}
}