{
  "_format": "hh-sol-artifact-1",
  "contractName": "Box",
  "sourceName": "contracts/Box.sol",
  "abi": [
    {
      "inputs": [
        {
          "internalType": "address",
          "name": "target",
          "type": "address"
        }
      ],
      "name": "AddressEmptyCode",
      "type": "error"
    },
    {
      "inputs": [
        {
          "internalType": "address",
          "name": "implementation",
          "type": "address"
        }
      ],
      "name": "ERC1967InvalidImplementation",
      "type": "error"
    },
    {
      "inputs": [],
      "name": "ERC1967NonPayable",
      "type": "error"
    },
    {
      "inputs": [],
      "name": "FailedCall",
      "type": "error"
    },
    {
      "inputs": [],
      "name": "InvalidInitialization",
      "type": "error"
    },
    {
      "inputs": [],
      "name": "NotInitializing",
      "type": "error"
    },
    {
      "inputs": [
        {
          "internalType": "address",
          "name": "owner",
          "type": "address"
        }
      ],
      "name": "OwnableInvalidOwner",
      "type": "error"
    },
    {
      "inputs": [
        {
          "internalType": "address",
          "name": "account",
          "type": "address"
        }
      ],
      "name": "OwnableUnauthorizedAccount",
      "type": "error"
    },
    {
      "inputs": [],
      "name": "UUPSUnauthorizedCallContext",
      "type": "error"
    },
    {
      "inputs": [
        {
          "internalType": "bytes32",
          "name": "slot",
          "type": "bytes32"
        }
      ],
      "name": "UUPSUnsupportedProxiableUUID",
      "type": "error"
    },
    {
      "anonymous": false,
      "inputs": [
        {
          "indexed": false,
          "internalType": "uint64",
          "name": "version",
          "type": "uint64"
        }
      ],
      "name": "Initialized",
      "type": "event"
    },
    {
      "anonymous": false,
      "inputs": [
        {
          "indexed": true,
          "internalType": "address",
          "name": "previousOwner",
          "type": "address"
        },
        {
          "indexed": true,
          "internalType": "address",
          "name": "newOwner",
          "type": "address"
        }
      ],
      "name": "OwnershipTransferred",
      "type": "event"
    },
    {
      "anonymous": false,
      "inputs": [
        {
          "indexed": true,
          "internalType": "address",
          "name": "implementation",
          "type": "address"
        }
      ],
      "name": "Upgraded",
      "type": "event"
    },
    {
      "inputs": [],
      "name": "UPGRADE_INTERFACE_VERSION",
      "outputs": [
        {
          "internalType": "string",
          "name": "",
          "type": "string"
        }
      ],
      "stateMutability": "view",
      "type": "function"
    },
    {
      "inputs": [],
      "name": "getValue",
      "outputs": [
        {
          "internalType": "uint256",
          "name": "",
          "type": "uint256"
        }
      ],
      "stateMutability": "view",
      "type": "function"
    },
    {
      "inputs": [],
      "name": "initialize",
      "outputs": [],
      "stateMutability": "nonpayable",
      "type": "function"
    },
    {
      "inputs": [],
      "name": "owner",
      "outputs": [
        {
          "internalType": "address",
          "name": "",
          "type": "address"
        }
      ],
      "stateMutability": "view",
      "type": "function"
    },
    {
      "inputs": [],
      "name": "proxiableUUID",
      "outputs": [
        {
          "internalType": "bytes32",
          "name": "",
          "type": "bytes32"
        }
      ],
      "stateMutability": "view",
      "type": "function"
    },
    {
      "inputs": [],
      "name": "renounceOwnership",
      "outputs": [],
      "stateMutability": "nonpayable",
      "type": "function"
    },
    {
      "inputs": [
        {
          "internalType": "uint256",
          "name": "_value",
          "type": "uint256"
        }
      ],
      "name": "setValue",
      "outputs": [],
      "stateMutability": "nonpayable",
      "type": "function"
    },
    {
      "inputs": [
        {
          "internalType": "address",
          "name": "newOwner",
          "type": "address"
        }
      ],
      "name": "transferOwnership",
      "outputs": [],
      "stateMutability": "nonpayable",
      "type": "function"
    },
    {
      "inputs": [
        {
          "internalType": "address",
          "name": "newImplementation",
          "type": "address"
        },
        {
          "internalType": "bytes",
          "name": "data",
          "type": "bytes"
        }
      ],
      "name": "upgradeToAndCall",
      "outputs": [],
      "stateMutability": "payable",
      "type": "function"
    },
    {
      "inputs": [],
      "name": "value",
      "outputs": [
        {
          "internalType": "uint256",
          "name": "",
          "type": "uint256"
        }
      ],
      "stateMutability": "view",
      "type": "function"
    }
  ],
  "bytecode": "0x60a06040523073ffffffffffffffffffffffffffffffffffffffff1660809073ffffffffffffffffffffffffffffffffffffffff16815250348015604257600080fd5b506080516112f061006c600039600081816105270152818161057c015261073701526112f06000f3fe6080604052600436106100915760003560e01c8063715018a611610059578063715018a61461015c5780638129fc1c146101735780638da5cb5b1461018a578063ad3cb1cc146101b5578063f2fde38b146101e057610091565b806320965255146100965780633fa4f245146100c15780634f1ef286146100ec57806352d1902d146101085780635524107714610133575b600080fd5b3480156100a257600080fd5b506100ab610209565b6040516100b89190610ddb565b60405180910390f35b3480156100cd57600080fd5b506100d6610212565b6040516100e39190610ddb565b60405180910390f35b61010660048036038101906101019190610fae565b610218565b005b34801561011457600080fd5b5061011d610237565b60405161012a9190611023565b60405180910390f35b34801561013f57600080fd5b5061015a6004803603810190610155919061106a565b61026a565b005b34801561016857600080fd5b5061017161027c565b005b34801561017f57600080fd5b50610188610290565b005b34801561019657600080fd5b5061019f61042e565b6040516101ac91906110a6565b60405180910390f35b3480156101c157600080fd5b506101ca610466565b6040516101d79190611140565b60405180910390f35b3480156101ec57600080fd5b5061020760048036038101906102029190611162565b61049f565b005b60008054905090565b60005481565b610220610525565b6102298261060b565b6102338282610616565b5050565b6000610241610735565b7f360894a13ba1a3210667c828492db98dca3e2076cc3735a920a3ca505d382bbc60001b905090565b6102726107bc565b8060008190555050565b6102846107bc565b61028e6000610843565b565b600061029a61091a565b905060008160000160089054906101000a900460ff1615905060008260000160009054906101000a900467ffffffffffffffff1690506000808267ffffffffffffffff161480156102e85750825b9050600060018367ffffffffffffffff1614801561031d575060003073ffffffffffffffffffffffffffffffffffffffff163b145b90508115801561032b575080155b15610362576040517ff92ee8a900000000000000000000000000000000000000000000000000000000815260040160405180910390fd5b60018560000160006101000a81548167ffffffffffffffff021916908367ffffffffffffffff16021790555083156103b25760018560000160086101000a81548160ff0219169083151502179055505b6103bb3361092e565b6103c3610942565b606460008190555083156104275760008560000160086101000a81548160ff0219169083151502179055507fc7f505b2f371ae2175ee4913f4499e1f2633a7b5936321eed1cdaeb6115181d2600160405161041e91906111e8565b60405180910390a15b5050505050565b60008061043961094c565b90508060000160009054906101000a900473ffffffffffffffffffffffffffffffffffffffff1691505090565b6040518060400160405280600581526020017f352e302e3000000000000000000000000000000000000000000000000000000081525081565b6104a76107bc565b600073ffffffffffffffffffffffffffffffffffffffff168173ffffffffffffffffffffffffffffffffffffffff16036105195760006040517f1e4fbdf700000000000000000000000000000000000000000000000000000000815260040161051091906110a6565b60405180910390fd5b61052281610843565b50565b7f000000000000000000000000000000000000000000000000000000000000000073ffffffffffffffffffffffffffffffffffffffff163073ffffffffffffffffffffffffffffffffffffffff1614806105d257507f000000000000000000000000000000000000000000000000000000000000000073ffffffffffffffffffffffffffffffffffffffff166105b9610974565b73ffffffffffffffffffffffffffffffffffffffff1614155b15610609576040517fe07c8dba00000000000000000000000000000000000000000000000000000000815260040160405180910390fd5b565b6106136107bc565b50565b8173ffffffffffffffffffffffffffffffffffffffff166352d1902d6040518163ffffffff1660e01b8152600401602060405180830381865afa92505050801561067e57506040513d601f19601f8201168201806040525081019061067b919061122f565b60015b6106bf57816040517f4c9c8ce30000000000000000000000000000000000000000000000000000000081526004016106b691906110a6565b60405180910390fd5b7f360894a13ba1a3210667c828492db98dca3e2076cc3735a920a3ca505d382bbc60001b811461072657806040517faa1d49a400000000000000000000000000000000000000000000000000000000815260040161071d9190611023565b60405180910390fd5b61073083836109cb565b505050565b7f000000000000000000000000000000000000000000000000000000000000000073ffffffffffffffffffffffffffffffffffffffff163073ffffffffffffffffffffffffffffffffffffffff16146107ba576040517fe07c8dba00000000000000000000000000000000000000000000000000000000815260040160405180910390fd5b565b6107c4610a3e565b73ffffffffffffffffffffffffffffffffffffffff166107e261042e565b73ffffffffffffffffffffffffffffffffffffffff161461084157610805610a3e565b6040517f118cdaa700000000000000000000000000000000000000000000000000000000815260040161083891906110a6565b60405180910390fd5b565b600061084d61094c565b905060008160000160009054906101000a900473ffffffffffffffffffffffffffffffffffffffff169050828260000160006101000a81548173ffffffffffffffffffffffffffffffffffffffff021916908373ffffffffffffffffffffffffffffffffffffffff1602179055508273ffffffffffffffffffffffffffffffffffffffff168173ffffffffffffffffffffffffffffffffffffffff167f8be0079c531659141344cd1fd0a4f28419497f9722a3daafe3b4186f6b6457e060405160405180910390a3505050565b600080610925610a46565b90508091505090565b610936610a71565b61093f81610ab1565b50565b61094a610a71565b565b60007f9016d09d72d40fdae2fd8ceac6b6234c7706214fd39c1cd1e609a0528c199300905090565b60006109a27f360894a13ba1a3210667c828492db98dca3e2076cc3735a920a3ca505d382bbc60001b610b37565b60000160009054906101000a900473ffffffffffffffffffffffffffffffffffffffff16905090565b6109d482610b41565b8173ffffffffffffffffffffffffffffffffffffffff167fbc7cd75a20ee27fd9adebab32041f755214dbc6bffa90cc0225b39da2e5c2d3b60405160405180910390a2600081511115610a3157610a2b8282610c0e565b50610a3a565b610a39610c92565b5b5050565b600033905090565b60007ff0c57e16840df040f15088dc2f81fe391c3923bec73e23a9662efc9c229c6a0060001b905090565b610a79610ccf565b610aaf576040517fd7e6bcf800000000000000000000000000000000000000000000000000000000815260040160405180910390fd5b565b610ab9610a71565b600073ffffffffffffffffffffffffffffffffffffffff168173ffffffffffffffffffffffffffffffffffffffff1603610b2b5760006040517f1e4fbdf7000000000000000000000000000000000000000000000000000000008152600401610b2291906110a6565b60405180910390fd5b610b3481610843565b50565b6000819050919050565b60008173ffffffffffffffffffffffffffffffffffffffff163b03610b9d57806040517f4c9c8ce3000000000000000000000000000000000000000000000000000000008152600401610b9491906110a6565b60405180910390fd5b80610bca7f360894a13ba1a3210667c828492db98dca3e2076cc3735a920a3ca505d382bbc60001b610b37565b60000160006101000a81548173ffffffffffffffffffffffffffffffffffffffff021916908373ffffffffffffffffffffffffffffffffffffffff16021790555050565b60606000808473ffffffffffffffffffffffffffffffffffffffff1684604051610c3891906112a3565b600060405180830381855af49150503d8060008114610c73576040519150601f19603f3d011682016040523d82523d6000602084013e610c78565b606091505b5091509150610c88858383610cef565b9250505092915050565b6000341115610ccd576040517fb398979f00000000000000000000000000000000000000000000000000000000815260040160405180910390fd5b565b6000610cd961091a565b60000160089054906101000a900460ff16905090565b606082610d0457610cff82610d7e565b610d76565b60008251148015610d2c575060008473ffffffffffffffffffffffffffffffffffffffff163b145b15610d6e57836040517f9996b315000000000000000000000000000000000000000000000000000000008152600401610d6591906110a6565b60405180910390fd5b819050610d77565b5b9392505050565b600081511115610d9057805160208201fd5b6040517fd6bda27500000000000000000000000000000000000000000000000000000000815260040160405180910390fd5b6000819050919050565b610dd581610dc2565b82525050565b6000602082019050610df06000830184610dcc565b92915050565b6000604051905090565b600080fd5b600080fd5b600073ffffffffffffffffffffffffffffffffffffffff82169050919050565b6000610e3582610e0a565b9050919050565b610e4581610e2a565b8114610e5057600080fd5b50565b600081359050610e6281610e3c565b92915050565b600080fd5b600080fd5b6000601f19601f8301169050919050565b7f4e487b7100000000000000000000000000000000000000000000000000000000600052604160045260246000fd5b610ebb82610e72565b810181811067ffffffffffffffff82111715610eda57610ed9610e83565b5b80604052505050565b6000610eed610df6565b9050610ef98282610eb2565b919050565b600067ffffffffffffffff821115610f1957610f18610e83565b5b610f2282610e72565b9050602081019050919050565b82818337600083830152505050565b6000610f51610f4c84610efe565b610ee3565b905082815260208101848484011115610f6d57610f6c610e6d565b5b610f78848285610f2f565b509392505050565b600082601f830112610f9557610f94610e68565b5b8135610fa5848260208601610f3e565b91505092915050565b60008060408385031215610fc557610fc4610e00565b5b6000610fd385828601610e53565b925050602083013567ffffffffffffffff811115610ff457610ff3610e05565b5b61100085828601610f80565b9150509250929050565b6000819050919050565b61101d8161100a565b82525050565b60006020820190506110386000830184611014565b92915050565b61104781610dc2565b811461105257600080fd5b50565b6000813590506110648161103e565b92915050565b6000602082840312156110805761107f610e00565b5b600061108e84828501611055565b91505092915050565b6110a081610e2a565b82525050565b60006020820190506110bb6000830184611097565b92915050565b600081519050919050565b600082825260208201905092915050565b60005b838110156110fb5780820151818401526020810190506110e0565b60008484015250505050565b6000611112826110c1565b61111c81856110cc565b935061112c8185602086016110dd565b61113581610e72565b840191505092915050565b6000602082019050818103600083015261115a8184611107565b905092915050565b60006020828403121561117857611177610e00565b5b600061118684828501610e53565b91505092915050565b6000819050919050565b600067ffffffffffffffff82169050919050565b6000819050919050565b60006111d26111cd6111c88461118f565b6111ad565b611199565b9050919050565b6111e2816111b7565b82525050565b60006020820190506111fd60008301846111d9565b92915050565b61120c8161100a565b811461121757600080fd5b50565b60008151905061122981611203565b92915050565b60006020828403121561124557611244610e00565b5b60006112538482850161121a565b91505092915050565b600081519050919050565b600081905092915050565b600061127d8261125c565b6112878185611267565b93506112978185602086016110dd565b80840191505092915050565b60006112af8284611272565b91508190509291505056fea2646970667358221220dcee6edac4a90b1920f1555fb240745806130a213f6ff5aae7e5cfa5d7007cf664736f6c634300081c0033",
  "linkReferences": {},
  "deployedLinkReferences": {}
}